{"abi":[{"type":"constructor","inputs":[{"name":"_weth","type":"address","internalType":"address"},{"name":"_workNft","type":"address","internalType":"address"}],"stateMutability":"nonpayable"},{"type":"function","name":"WETH","inputs":[],"outputs":[{"name":"","type":"address","internalType":"contract IERC20"}],"stateMutability":"view"},{"type":"function","name":"WORK_NFT","inputs":[],"outputs":[{"name":"","type":"address","internalType":"contract IWorkNFT"}],"stateMutability":"view"},{"type":"function","name":"approveWork","inputs":[{"name":"jobId","type":"uint256","internalType":"uint256"}],"outputs":[],"stateMutability":"nonpayable"},{"type":"function","name":"cancelJob","inputs":[{"name":"jobId","type":"uint256","internalType":"uint256"}],"outputs":[],"stateMutability":"nonpayable"},{"type":"function","name":"createJob","inputs":[{"name":"reward","type":"uint256","internalType":"uint256"},{"name":"deadline","type":"uint256","internalType":"uint256"},{"name":"title","type":"string","internalType":"string"},{"name":"description","type":"string","internalType":"string"}],"outputs":[],"stateMutability":"nonpayable"},{"type":"function","name":"getJob","inputs":[{"name":"jobId","type":"uint256","internalType":"uint256"}],"outputs":[{"name":"","type":"tuple","internalType":"struct WorkMarketplace.Job","components":[{"name":"jobId","type":"uint256","internalType":"uint256"},{"name":"requester","type":"address","internalType":"address"},{"name":"worker","type":"address","internalType":"address"},{"name":"reward","type":"uint256","internalType":"uint256"},{"name":"deadline","type":"uint256","internalType":"uint256"},{"name":"title","type":"string","internalType":"string"},{"name":"description","type":"string","internalType":"string"},{"name":"deliveryUrl","type":"string","internalType":"string"},{"name":"status","type":"uint8","internalType":"enum WorkMarketplace.JobStatus"}]}],"stateMutability":"view"},{"type":"function","name":"getJobBasicInfo","inputs":[{"name":"jobId","type":"uint256","internalType":"uint256"}],"outputs":[{"name":"requester","type":"address","internalType":"address"},{"name":"worker","type":"address","internalType":"address"},{"name":"reward","type":"uint256","internalType":"uint256"},{"name":"deadline","type":"uint256","internalType":"uint256"},{"name":"title","type":"string","internalType":"string"},{"name":"status","type":"uint8","internalType":"enum WorkMarketplace.JobStatus"}],"stateMutability":"view"},{"type":"function","name":"jobs","inputs":[{"name":"","type":"uint256","internalType":"uint256"}],"outputs":[{"name":"jobId","type":"uint256","internalType":"uint256"},{"name":"requester","type":"address","internalType":"address"},{"name":"worker","type":"address","internalType":"address"},{"name":"reward","type":"uint256","internalType":"uint256"},{"name":"deadline","type":"uint256","internalType":"uint256"},{"name":"title","type":"string","internalType":"string"},{"name":"description","type":"string","internalType":"string"},{"name":"deliveryUrl","type":"string","internalType":"string"},{"name":"status","type":"uint8","internalType":"enum WorkMarketplace.JobStatus"}],"stateMutability":"view"},{"type":"function","name":"nextJobId","inputs":[],"outputs":[{"name":"","type":"uint256","internalType":"uint256"}],"stateMutability":"view"},{"type":"function","name":"owner","inputs":[],"outputs":[{"name":"","type":"address","internalType":"address"}],"stateMutability":"view"},{"type":"function","name":"renounceOwnership","inputs":[],"outputs":[],"stateMutability":"nonpayable"},{"type":"function","name":"submitWork","inputs":[{"name":"jobId","type":"uint256","internalType":"uint256"},{"name":"deliveryUrl","type":"string","internalType":"string"}],"outputs":[],"stateMutability":"nonpayable"},{"type":"function","name":"takeJob","inputs":[{"name":"jobId","type":"uint256","internalType":"uint256"}],"outputs":[],"stateMutability":"nonpayable"},{"type":"function","name":"transferOwnership","inputs":[{"name":"newOwner","type":"address","internalType":"address"}],"outputs":[],"stateMutability":"nonpayable"},{"type":"event","name":"JobCancelled","inputs":[{"name":"jobId","type":"uint256","indexed":true,"internalType":"uint256"},{"name":"requester","type":"address","indexed":true,"internalType":"address"}],"anonymous":false},{"type":"event","name":"JobCreated","inputs":[{"name":"jobId","type":"uint256","indexed":true,"internalType":"uint256"},{"name":"requester","type":"address","indexed":true,"internalType":"address"},{"name":"reward","type":"uint256","indexed":false,"internalType":"uint256"},{"name":"deadline","type":"uint256","indexed":false,"internalType":"uint256"},{"name":"title","type":"string","indexed":false,"internalType":"string"}],"anonymous":false},{"type":"event","name":"JobTaken","inputs":[{"name":"jobId","type":"uint256","indexed":true,"internalType":"uint256"},{"name":"worker","type":"address","indexed":true,"internalType":"address"}],"anonymous":false},{"type":"event","name":"OwnershipTransferred","inputs":[{"name":"previousOwner","type":"address","indexed":true,"internalType":"address"},{"name":"newOwner","type":"address","indexed":true,"internalType":"address"}],"anonymous":false},{"type":"event","name":"WorkApproved","inputs":[{"name":"jobId","type":"uint256","indexed":true,"internalType":"uint256"},{"name":"requester","type":"address","indexed":true,"internalType":"address"},{"name":"worker","type":"address","indexed":true,"internalType":"address"},{"name":"tokenId","type":"uint256","indexed":false,"internalType":"uint256"}],"anonymous":false},{"type":"event","name":"WorkNFTMinted","inputs":[{"name":"jobId","type":"uint256","indexed":true,"internalType":"uint256"},{"name":"tokenId","type":"uint256","indexed":true,"internalType":"uint256"},{"name":"worker","type":"address","indexed":true,"internalType":"address"}],"anonymous":false},{"type":"event","name":"WorkSubmitted","inputs":[{"name":"jobId","type":"uint256","indexed":true,"internalType":"uint256"},{"name":"worker","type":"address","indexed":true,"internalType":"address"},{"name":"deliveryUrl","type":"string","indexed":false,"internalType":"string"}],"anonymous":false},{"type":"error","name":"OwnableInvalidOwner","inputs":[{"name":"owner","type":"address","internalType":"address"}]},{"type":"error","name":"OwnableUnauthorizedAccount","inputs":[{"name":"account","type":"address","internalType":"address"}]},{"type":"error","name":"ReentrancyGuardReentrantCall","inputs":[]}],"bytecode":{"object":"0x60c060405234801561000f575f5ffd5b5060405161373d38038061373d83398181016040528101906100319190610372565b33600161005061004561022160201b60201c565b61024a60201b60201c565b5f01819055505f73ffffffffffffffffffffffffffffffffffffffff168173ffffffffffffffffffffffffffffffffffffffff16036100c6575f6040517f1e4fbdf70000000000000000000000000000000000000000000000000000000081526004016100bd91906103bf565b60405180910390fd5b6100d58161025360201b60201c565b505f73ffffffffffffffffffffffffffffffffffffffff168273ffffffffffffffffffffffffffffffffffffffff1603610144576040517f08c379a000000000000000000000000000000000000000000000000000000000815260040161013b90610432565b60405180910390fd5b5f73ffffffffffffffffffffffffffffffffffffffff168173ffffffffffffffffffffffffffffffffffffffff16036101b2576040517f08c379a00000000000000000000000000000000000000000000000000000000081526004016101a99061049a565b60405180910390fd5b8173ffffffffffffffffffffffffffffffffffffffff1660808173ffffffffffffffffffffffffffffffffffffffff16815250508073ffffffffffffffffffffffffffffffffffffffff1660a08173ffffffffffffffffffffffffffffffffffffffff168152505050506104b8565b5f7f9b779b17422d0df92223018b32b4d1fa46e071723d6817e2486d003becc55f005f1b905090565b5f819050919050565b5f5f5f9054906101000a900473ffffffffffffffffffffffffffffffffffffffff169050815f5f6101000a81548173ffffffffffffffffffffffffffffffffffffffff021916908373ffffffffffffffffffffffffffffffffffffffff1602179055508173ffffffffffffffffffffffffffffffffffffffff168173ffffffffffffffffffffffffffffffffffffffff167f8be0079c531659141344cd1fd0a4f28419497f9722a3daafe3b4186f6b6457e060405160405180910390a35050565b5f5ffd5b5f73ffffffffffffffffffffffffffffffffffffffff82169050919050565b5f61034182610318565b9050919050565b61035181610337565b811461035b575f5ffd5b50565b5f8151905061036c81610348565b92915050565b5f5f6040838503121561038857610387610314565b5b5f6103958582860161035e565b92505060206103a68582860161035e565b9150509250929050565b6103b981610337565b82525050565b5f6020820190506103d25f8301846103b0565b92915050565b5f82825260208201905092915050565b7f574554482061646472657373207a65726f0000000000000000000000000000005f82015250565b5f61041c6011836103d8565b9150610427826103e8565b602082019050919050565b5f6020820190508181035f83015261044981610410565b9050919050565b7f576f726b4e46542061646472657373207a65726f0000000000000000000000005f82015250565b5f6104846014836103d8565b915061048f82610450565b602082019050919050565b5f6020820190508181035f8301526104b181610478565b9050919050565b60805160a0516132486104f55f395f8181610e28015261102301525f81816106bc01528181610d23015281816112260152611a4701526132485ff3fe608060405234801561000f575f5ffd5b50600436106100e8575f3560e01c80639330d9bc1161008a578063bf22c45711610064578063bf22c4571461022f578063da8accf91461025f578063f053b6fe1461027b578063f2fde38b14610297576100e8565b80639330d9bc146101d7578063ad5c4648146101f3578063b0c2aa5e14610211576100e8565b80633d01e0fa116100c65780633d01e0fa146101755780636db9432014610191578063715018a6146101af5780638da5cb5b146101b9576100e8565b8063180aedf3146100ec5780631dffa3dc14610124578063235bf45314610140575b5f5ffd5b61010660048036038101906101019190611ee0565b6102b3565b60405161011b9998979695949392919061203c565b60405180910390f35b61013e60048036038101906101399190611ee0565b6104d9565b005b61015a60048036038101906101559190611ee0565b610832565b60405161016c969594939291906120dc565b60405180910390f35b61018f600480360381019061018a9190611ee0565b610b3f565b005b610199611021565b6040516101a6919061219d565b60405180910390f35b6101b7611045565b005b6101c1611058565b6040516101ce91906121b6565b60405180910390f35b6101f160048036038101906101ec9190611ee0565b61107f565b005b6101fb611224565b60405161020891906121ef565b60405180910390f35b610219611248565b6040516102269190612208565b60405180910390f35b61024960048036038101906102449190611ee0565b61124e565b6040516102569190612366565b60405180910390f35b610279600480360381019061027491906123e7565b61152b565b005b61029560048036038101906102909190612444565b611722565b005b6102b160048036038101906102ac9190612511565b611b83565b005b6002602052805f5260405f205f91509050805f015490806001015f9054906101000a900473ffffffffffffffffffffffffffffffffffffffff1690806002015f9054906101000a900473ffffffffffffffffffffffffffffffffffffffff169080600301549080600401549080600501805461032e90612569565b80601f016020809104026020016040519081016040528092919081815260200182805461035a90612569565b80156103a55780601f1061037c576101008083540402835291602001916103a5565b820191905f5260205f20905b81548152906001019060200180831161038857829003601f168201915b5050505050908060060180546103ba90612569565b80601f01602080910402602001604051908101604052809291908181526020018280546103e690612569565b80156104315780601f1061040857610100808354040283529160200191610431565b820191905f5260205f20905b81548152906001019060200180831161041457829003601f168201915b50505050509080600701805461044690612569565b80601f016020809104026020016040519081016040528092919081815260200182805461047290612569565b80156104bd5780601f10610494576101008083540402835291602001916104bd565b820191905f5260205f20905b8154815290600101906020018083116104a057829003601f168201915b505050505090806008015f9054906101000a900460ff16905089565b6104e1611c07565b5f60025f8381526020019081526020015f209050806001015f9054906101000a900473ffffffffffffffffffffffffffffffffffffffff1673ffffffffffffffffffffffffffffffffffffffff163373ffffffffffffffffffffffffffffffffffffffff1614610586576040517f08c379a000000000000000000000000000000000000000000000000000000000815260040161057d906125e3565b60405180910390fd5b5f600381111561059957610598611fc9565b5b816008015f9054906101000a900460ff1660038111156105bc576105bb611fc9565b5b146105fc576040517f08c379a00000000000000000000000000000000000000000000000000000000081526004016105f39061264b565b60405180910390fd5b5f73ffffffffffffffffffffffffffffffffffffffff16816002015f9054906101000a900473ffffffffffffffffffffffffffffffffffffffff1673ffffffffffffffffffffffffffffffffffffffff161461068d576040517f08c379a0000000000000000000000000000000000000000000000000000000008152600401610684906126b3565b60405180910390fd5b6003816008015f6101000a81548160ff021916908360038111156106b4576106b3611fc9565b5b02179055505f7f000000000000000000000000000000000000000000000000000000000000000073ffffffffffffffffffffffffffffffffffffffff1663a9059cbb836001015f9054906101000a900473ffffffffffffffffffffffffffffffffffffffff1684600301546040518363ffffffff1660e01b815260040161073c9291906126d1565b6020604051808303815f875af1158015610758573d5f5f3e3d5ffd5b505050506040513d601f19601f8201168201806040525081019061077c919061272d565b9050806107be576040517f08c379a00000000000000000000000000000000000000000000000000000000081526004016107b5906127a2565b60405180910390fd5b816001015f9054906101000a900473ffffffffffffffffffffffffffffffffffffffff1673ffffffffffffffffffffffffffffffffffffffff16837ff1ab0865975dad5c69ae8e4baaf13114c875728afa7cc86368534c22a631d0b060405160405180910390a3505061082f611c29565b50565b5f5f5f5f60605f5f60025f8981526020019081526020015f20604051806101200160405290815f8201548152602001600182015f9054906101000a900473ffffffffffffffffffffffffffffffffffffffff1673ffffffffffffffffffffffffffffffffffffffff1673ffffffffffffffffffffffffffffffffffffffff168152602001600282015f9054906101000a900473ffffffffffffffffffffffffffffffffffffffff1673ffffffffffffffffffffffffffffffffffffffff1673ffffffffffffffffffffffffffffffffffffffff168152602001600382015481526020016004820154815260200160058201805461092e90612569565b80601f016020809104026020016040519081016040528092919081815260200182805461095a90612569565b80156109a55780601f1061097c576101008083540402835291602001916109a5565b820191905f5260205f20905b81548152906001019060200180831161098857829003601f168201915b505050505081526020016006820180546109be90612569565b80601f01602080910402602001604051908101604052809291908181526020018280546109ea90612569565b8015610a355780601f10610a0c57610100808354040283529160200191610a35565b820191905f5260205f20905b815481529060010190602001808311610a1857829003601f168201915b50505050508152602001600782018054610a4e90612569565b80601f0160208091040260200160405190810160405280929190818152602001828054610a7a90612569565b8015610ac55780601f10610a9c57610100808354040283529160200191610ac5565b820191905f5260205f20905b815481529060010190602001808311610aa857829003601f168201915b50505050508152602001600882015f9054906101000a900460ff166003811115610af257610af1611fc9565b5b6003811115610b0457610b03611fc9565b5b81525050905080602001518160400151826060015183608001518460a001518561010001519650965096509650965096505091939550919395565b610b47611c07565b5f60025f8381526020019081526020015f209050806001015f9054906101000a900473ffffffffffffffffffffffffffffffffffffffff1673ffffffffffffffffffffffffffffffffffffffff163373ffffffffffffffffffffffffffffffffffffffff1614610bec576040517f08c379a0000000000000000000000000000000000000000000000000000000008152600401610be3906125e3565b60405180910390fd5b60016003811115610c0057610bff611fc9565b5b816008015f9054906101000a900460ff166003811115610c2357610c22611fc9565b5b14610c63576040517f08c379a0000000000000000000000000000000000000000000000000000000008152600401610c5a9061280a565b60405180910390fd5b5f73ffffffffffffffffffffffffffffffffffffffff16816002015f9054906101000a900473ffffffffffffffffffffffffffffffffffffffff1673ffffffffffffffffffffffffffffffffffffffff1603610cf4576040517f08c379a0000000000000000000000000000000000000000000000000000000008152600401610ceb90612872565b60405180910390fd5b6002816008015f6101000a81548160ff02191690836003811115610d1b57610d1a611fc9565b5b02179055505f7f000000000000000000000000000000000000000000000000000000000000000073ffffffffffffffffffffffffffffffffffffffff1663a9059cbb836002015f9054906101000a900473ffffffffffffffffffffffffffffffffffffffff1684600301546040518363ffffffff1660e01b8152600401610da39291906126d1565b6020604051808303815f875af1158015610dbf573d5f5f3e3d5ffd5b505050506040513d601f19601f82011682018060405250810190610de3919061272d565b905080610e25576040517f08c379a0000000000000000000000000000000000000000000000000000000008152600401610e1c906128da565b60405180910390fd5b5f7f000000000000000000000000000000000000000000000000000000000000000073ffffffffffffffffffffffffffffffffffffffff1663ef412a9a846002015f9054906101000a900473ffffffffffffffffffffffffffffffffffffffff16855f01548660030154876004015488600501896007016040518763ffffffff1660e01b8152600401610ebd9695949392919061298b565b6020604051808303815f875af1158015610ed9573d5f5f3e3d5ffd5b505050506040513d601f19601f82011682018060405250810190610efd9190612a0c565b9050826002015f9054906101000a900473ffffffffffffffffffffffffffffffffffffffff1673ffffffffffffffffffffffffffffffffffffffff16836001015f9054906101000a900473ffffffffffffffffffffffffffffffffffffffff1673ffffffffffffffffffffffffffffffffffffffff16857fe3f057fcd0107b02b650fbf4e8ee96f7599fe2d2af2dd438524bbadf86ade04984604051610fa39190612208565b60405180910390a4826002015f9054906101000a900473ffffffffffffffffffffffffffffffffffffffff1673ffffffffffffffffffffffffffffffffffffffff1681857fbcd7a0d0db3c4d6161e188892155eb4e928b6f43d55ec5f4a20bb5d85897156460405160405180910390a450505061101e611c29565b50565b7f000000000000000000000000000000000000000000000000000000000000000081565b61104d611c43565b6110565f611cca565b565b5f5f5f9054906101000a900473ffffffffffffffffffffffffffffffffffffffff16905090565b5f60025f8381526020019081526020015f2090505f60038111156110a6576110a5611fc9565b5b816008015f9054906101000a900460ff1660038111156110c9576110c8611fc9565b5b14611109576040517f08c379a000000000000000000000000000000000000000000000000000000000815260040161110090612a81565b60405180910390fd5b5f73ffffffffffffffffffffffffffffffffffffffff16816002015f9054906101000a900473ffffffffffffffffffffffffffffffffffffffff1673ffffffffffffffffffffffffffffffffffffffff161461119a576040517f08c379a0000000000000000000000000000000000000000000000000000000008152600401611191906126b3565b60405180910390fd5b33816002015f6101000a81548173ffffffffffffffffffffffffffffffffffffffff021916908373ffffffffffffffffffffffffffffffffffffffff1602179055503373ffffffffffffffffffffffffffffffffffffffff16827f63d05f037a34bfd9732c85be51fc52a421f621694ced20c350480d44d6a3b3fa60405160405180910390a35050565b7f000000000000000000000000000000000000000000000000000000000000000081565b60015481565b611256611e21565b60025f8381526020019081526020015f20604051806101200160405290815f8201548152602001600182015f9054906101000a900473ffffffffffffffffffffffffffffffffffffffff1673ffffffffffffffffffffffffffffffffffffffff1673ffffffffffffffffffffffffffffffffffffffff168152602001600282015f9054906101000a900473ffffffffffffffffffffffffffffffffffffffff1673ffffffffffffffffffffffffffffffffffffffff1673ffffffffffffffffffffffffffffffffffffffff168152602001600382015481526020016004820154815260200160058201805461134a90612569565b80601f016020809104026020016040519081016040528092919081815260200182805461137690612569565b80156113c15780601f10611398576101008083540402835291602001916113c1565b820191905f5260205f20905b8154815290600101906020018083116113a457829003601f168201915b505050505081526020016006820180546113da90612569565b80601f016020809104026020016040519081016040528092919081815260200182805461140690612569565b80156114515780601f1061142857610100808354040283529160200191611451565b820191905f5260205f20905b81548152906001019060200180831161143457829003601f168201915b5050505050815260200160078201805461146a90612569565b80601f016020809104026020016040519081016040528092919081815260200182805461149690612569565b80156114e15780601f106114b8576101008083540402835291602001916114e1565b820191905f5260205f20905b8154815290600101906020018083116114c457829003601f168201915b50505050508152602001600882015f9054906101000a900460ff16600381111561150e5761150d611fc9565b5b60038111156115205761151f611fc9565b5b815250509050919050565b5f60025f8581526020019081526020015f209050806002015f9054906101000a900473ffffffffffffffffffffffffffffffffffffffff1673ffffffffffffffffffffffffffffffffffffffff163373ffffffffffffffffffffffffffffffffffffffff16146115d0576040517f08c379a00000000000000000000000000000000000000000000000000000000081526004016115c790612ae9565b60405180910390fd5b5f60038111156115e3576115e2611fc9565b5b816008015f9054906101000a900460ff16600381111561160657611605611fc9565b5b14611646576040517f08c379a000000000000000000000000000000000000000000000000000000000815260040161163d90612b51565b60405180910390fd5b5f838390501161168b576040517f08c379a000000000000000000000000000000000000000000000000000000000815260040161168290612bb9565b60405180910390fd5b828282600701918261169e929190612d93565b506001816008015f6101000a81548160ff021916908360038111156116c6576116c5611fc9565b5b02179055503373ffffffffffffffffffffffffffffffffffffffff16847fd5d9bc882dc95f198786a74e52a0b87e49a07c80921b74821ba374339e394d308585604051611714929190612e9a565b60405180910390a350505050565b5f8611611764576040517f08c379a000000000000000000000000000000000000000000000000000000000815260040161175b90612f06565b60405180910390fd5b4285116117a6576040517f08c379a000000000000000000000000000000000000000000000000000000000815260040161179d90612f6e565b60405180910390fd5b5f84849050116117eb576040517f08c379a00000000000000000000000000000000000000000000000000000000081526004016117e290612fd6565b60405180910390fd5b5f60015f8154809291906117fe90613021565b9190505590506040518061012001604052808281526020013373ffffffffffffffffffffffffffffffffffffffff1681526020015f73ffffffffffffffffffffffffffffffffffffffff16815260200188815260200187815260200186868080601f0160208091040260200160405190810160405280939291908181526020018383808284375f81840152601f19601f82011690508083019250505050505050815260200184848080601f0160208091040260200160405190810160405280939291908181526020018383808284375f81840152601f19601f82011690508083019250505050505050815260200160405180602001604052805f81525081526020015f600381111561191357611912611fc9565b5b81525060025f8381526020019081526020015f205f820151815f01556020820151816001015f6101000a81548173ffffffffffffffffffffffffffffffffffffffff021916908373ffffffffffffffffffffffffffffffffffffffff1602179055506040820151816002015f6101000a81548173ffffffffffffffffffffffffffffffffffffffff021916908373ffffffffffffffffffffffffffffffffffffffff160217905550606082015181600301556080820151816004015560a08201518160050190816119e49190613068565b5060c08201518160060190816119fa9190613068565b5060e0820151816007019081611a109190613068565b50610100820151816008015f6101000a81548160ff02191690836003811115611a3c57611a3b611fc9565b5b02179055509050505f7f000000000000000000000000000000000000000000000000000000000000000073ffffffffffffffffffffffffffffffffffffffff166323b872dd33308b6040518463ffffffff1660e01b8152600401611aa293929190613137565b6020604051808303815f875af1158015611abe573d5f5f3e3d5ffd5b505050506040513d601f19601f82011682018060405250810190611ae2919061272d565b905080611b24576040517f08c379a0000000000000000000000000000000000000000000000000000000008152600401611b1b906131b6565b60405180910390fd5b3373ffffffffffffffffffffffffffffffffffffffff16827fa2a5b1a0547724f73a195d5b3a697af47e5e8d5b97c31abd385d2e170e9a5b488a8a8a8a604051611b7194939291906131d4565b60405180910390a35050505050505050565b611b8b611c43565b5f73ffffffffffffffffffffffffffffffffffffffff168173ffffffffffffffffffffffffffffffffffffffff1603611bfb575f6040517f1e4fbdf7000000000000000000000000000000000000000000000000000000008152600401611bf291906121b6565b60405180910390fd5b611c0481611cca565b50565b611c0f611d8b565b6002611c21611c1c611dcc565b611df5565b5f0181905550565b6001611c3b611c36611dcc565b611df5565b5f0181905550565b611c4b611dfe565b73ffffffffffffffffffffffffffffffffffffffff16611c69611058565b73ffffffffffffffffffffffffffffffffffffffff1614611cc857611c8c611dfe565b6040517f118cdaa7000000000000000000000000000000000000000000000000000000008152600401611cbf91906121b6565b60405180910390fd5b565b5f5f5f9054906101000a900473ffffffffffffffffffffffffffffffffffffffff169050815f5f6101000a81548173ffffffffffffffffffffffffffffffffffffffff021916908373ffffffffffffffffffffffffffffffffffffffff1602179055508173ffffffffffffffffffffffffffffffffffffffff168173ffffffffffffffffffffffffffffffffffffffff167f8be0079c531659141344cd1fd0a4f28419497f9722a3daafe3b4186f6b6457e060405160405180910390a35050565b611d93611e05565b15611dca576040517f3ee5aeb500000000000000000000000000000000000000000000000000000000815260040160405180910390fd5b565b5f7f9b779b17422d0df92223018b32b4d1fa46e071723d6817e2486d003becc55f005f1b905090565b5f819050919050565b5f33905090565b5f6002611e18611e13611dcc565b611df5565b5f015414905090565b6040518061012001604052805f81526020015f73ffffffffffffffffffffffffffffffffffffffff1681526020015f73ffffffffffffffffffffffffffffffffffffffff1681526020015f81526020015f81526020016060815260200160608152602001606081526020015f6003811115611e9f57611e9e611fc9565b5b81525090565b5f5ffd5b5f5ffd5b5f819050919050565b611ebf81611ead565b8114611ec9575f5ffd5b50565b5f81359050611eda81611eb6565b92915050565b5f60208284031215611ef557611ef4611ea5565b5b5f611f0284828501611ecc565b91505092915050565b611f1481611ead565b82525050565b5f73ffffffffffffffffffffffffffffffffffffffff82169050919050565b5f611f4382611f1a565b9050919050565b611f5381611f39565b82525050565b5f81519050919050565b5f82825260208201905092915050565b8281835e5f83830152505050565b5f601f19601f8301169050919050565b5f611f9b82611f59565b611fa58185611f63565b9350611fb5818560208601611f73565b611fbe81611f81565b840191505092915050565b7f4e487b71000000000000000000000000000000000000000000000000000000005f52602160045260245ffd5b6004811061200757612006611fc9565b5b50565b5f81905061201782611ff6565b919050565b5f6120268261200a565b9050919050565b6120368161201c565b82525050565b5f610120820190506120505f83018c611f0b565b61205d602083018b611f4a565b61206a604083018a611f4a565b6120776060830189611f0b565b6120846080830188611f0b565b81810360a08301526120968187611f91565b905081810360c08301526120aa8186611f91565b905081810360e08301526120be8185611f91565b90506120ce61010083018461202d565b9a9950505050505050505050565b5f60c0820190506120ef5f830189611f4a565b6120fc6020830188611f4a565b6121096040830187611f0b565b6121166060830186611f0b565b81810360808301526121288185611f91565b905061213760a083018461202d565b979650505050505050565b5f819050919050565b5f61216561216061215b84611f1a565b612142565b611f1a565b9050919050565b5f6121768261214b565b9050919050565b5f6121878261216c565b9050919050565b6121978161217d565b82525050565b5f6020820190506121b05f83018461218e565b92915050565b5f6020820190506121c95f830184611f4a565b92915050565b5f6121d98261216c565b9050919050565b6121e9816121cf565b82525050565b5f6020820190506122025f8301846121e0565b92915050565b5f60208201905061221b5f830184611f0b565b92915050565b61222a81611ead565b82525050565b61223981611f39565b82525050565b5f82825260208201905092915050565b5f61225982611f59565b612263818561223f565b9350612273818560208601611f73565b61227c81611f81565b840191505092915050565b6122908161201c565b82525050565b5f61012083015f8301516122ac5f860182612221565b5060208301516122bf6020860182612230565b5060408301516122d26040860182612230565b5060608301516122e56060860182612221565b5060808301516122f86080860182612221565b5060a083015184820360a0860152612310828261224f565b91505060c083015184820360c086015261232a828261224f565b91505060e083015184820360e0860152612344828261224f565b91505061010083015161235b610100860182612287565b508091505092915050565b5f6020820190508181035f83015261237e8184612296565b905092915050565b5f5ffd5b5f5ffd5b5f5ffd5b5f5f83601f8401126123a7576123a6612386565b5b8235905067ffffffffffffffff8111156123c4576123c361238a565b5b6020830191508360018202830111156123e0576123df61238e565b5b9250929050565b5f5f5f604084860312156123fe576123fd611ea5565b5b5f61240b86828701611ecc565b935050602084013567ffffffffffffffff81111561242c5761242b611ea9565b5b61243886828701612392565b92509250509250925092565b5f5f5f5f5f5f6080878903121561245e5761245d611ea5565b5b5f61246b89828a01611ecc565b965050602061247c89828a01611ecc565b955050604087013567ffffffffffffffff81111561249d5761249c611ea9565b5b6124a989828a01612392565b9450945050606087013567ffffffffffffffff8111156124cc576124cb611ea9565b5b6124d889828a01612392565b92509250509295509295509295565b6124f081611f39565b81146124fa575f5ffd5b50565b5f8135905061250b816124e7565b92915050565b5f6020828403121561252657612525611ea5565b5b5f612533848285016124fd565b91505092915050565b7f4e487b71000000000000000000000000000000000000000000000000000000005f52602260045260245ffd5b5f600282049050600182168061258057607f821691505b6020821081036125935761259261253c565b5b50919050565b7f4e6f7420746865207265717565737465720000000000000000000000000000005f82015250565b5f6125cd601183611f63565b91506125d882612599565b602082019050919050565b5f6020820190508181035f8301526125fa816125c1565b9050919050565b7f4a6f62206e6f742063616e63656c6c61626c65000000000000000000000000005f82015250565b5f612635601383611f63565b915061264082612601565b602082019050919050565b5f6020820190508181035f83015261266281612629565b9050919050565b7f4a6f6220616c72656164792074616b656e0000000000000000000000000000005f82015250565b5f61269d601183611f63565b91506126a882612669565b602082019050919050565b5f6020820190508181035f8301526126ca81612691565b9050919050565b5f6040820190506126e45f830185611f4a565b6126f16020830184611f0b565b9392505050565b5f8115159050919050565b61270c816126f8565b8114612716575f5ffd5b50565b5f8151905061272781612703565b92915050565b5f6020828403121561274257612741611ea5565b5b5f61274f84828501612719565b91505092915050565b7f5745544820726566756e64206661696c656400000000000000000000000000005f82015250565b5f61278c601283611f63565b915061279782612758565b602082019050919050565b5f6020820190508181035f8301526127b981612780565b9050919050565b7f576f726b206e6f74207375626d697474656400000000000000000000000000005f82015250565b5f6127f4601283611f63565b91506127ff826127c0565b602082019050919050565b5f6020820190508181035f830152612821816127e8565b9050919050565b7f4e6f20776f726b65722061737369676e656400000000000000000000000000005f82015250565b5f61285c601283611f63565b915061286782612828565b602082019050919050565b5f6020820190508181035f83015261288981612850565b9050919050565b7f57455448207061796d656e74206661696c6564000000000000000000000000005f82015250565b5f6128c4601383611f63565b91506128cf82612890565b602082019050919050565b5f6020820190508181035f8301526128f1816128b8565b9050919050565b5f819050815f5260205f209050919050565b5f815461291681612569565b6129208186611f63565b9450600182165f811461293a576001811461295057612982565b60ff198316865281151560200286019350612982565b612959856128f8565b5f5b8381101561297a5781548189015260018201915060208101905061295b565b808801955050505b50505092915050565b5f60c08201905061299e5f830189611f4a565b6129ab6020830188611f0b565b6129b86040830187611f0b565b6129c56060830186611f0b565b81810360808301526129d7818561290a565b905081810360a08301526129eb818461290a565b9050979650505050505050565b5f81519050612a0681611eb6565b92915050565b5f60208284031215612a2157612a20611ea5565b5b5f612a2e848285016129f8565b91505092915050565b7f4a6f62206e6f74206f70656e00000000000000000000000000000000000000005f82015250565b5f612a6b600c83611f63565b9150612a7682612a37565b602082019050919050565b5f6020820190508181035f830152612a9881612a5f565b9050919050565b7f4e6f742074686520776f726b65720000000000000000000000000000000000005f82015250565b5f612ad3600e83611f63565b9150612ade82612a9f565b602082019050919050565b5f6020820190508181035f830152612b0081612ac7565b9050919050565b7f496e76616c696420737461746520666f72207375626d697373696f6e000000005f82015250565b5f612b3b601c83611f63565b9150612b4682612b07565b602082019050919050565b5f6020820190508181035f830152612b6881612b2f565b9050919050565b7f44656c69766572792055524c20726571756972656400000000000000000000005f82015250565b5f612ba3601583611f63565b9150612bae82612b6f565b602082019050919050565b5f6020820190508181035f830152612bd081612b97565b9050919050565b5f82905092915050565b7f4e487b71000000000000000000000000000000000000000000000000000000005f52604160045260245ffd5b5f6020601f8301049050919050565b5f82821b905092915050565b5f60088302612c587fffffffffffffffffffffffffffffffffffffffffffffffffffffffffffffffff82612c1d565b612c628683612c1d565b95508019841693508086168417925050509392505050565b5f612c94612c8f612c8a84611ead565b612142565b611ead565b9050919050565b5f819050919050565b612cad83612c7a565b612cc1612cb982612c9b565b848454612c29565b825550505050565b5f5f905090565b612cd8612cc9565b612ce3818484612ca4565b505050565b5b81811015612d0657612cfb5f82612cd0565b600181019050612ce9565b5050565b601f821115612d4b57612d1c816128f8565b612d2584612c0e565b81016020851015612d34578190505b612d48612d4085612c0e565b830182612ce8565b50505b505050565b5f82821c905092915050565b5f612d6b5f1984600802612d50565b1980831691505092915050565b5f612d838383612d5c565b9150826002028217905092915050565b612d9d8383612bd7565b67ffffffffffffffff811115612db657612db5612be1565b5b612dc08254612569565b612dcb828285612d0a565b5f601f831160018114612df8575f8415612de6578287013590505b612df08582612d78565b865550612e57565b601f198416612e06866128f8565b5f5b82811015612e2d57848901358255600182019150602085019450602081019050612e08565b86831015612e4a5784890135612e46601f891682612d5c565b8355505b6001600288020188555050505b50505050505050565b828183375f83830152505050565b5f612e798385611f63565b9350612e86838584612e60565b612e8f83611f81565b840190509392505050565b5f6020820190508181035f830152612eb3818486612e6e565b90509392505050565b7f526577617264206d757374206265203e203000000000000000000000000000005f82015250565b5f612ef0601283611f63565b9150612efb82612ebc565b602082019050919050565b5f6020820190508181035f830152612f1d81612ee4565b9050919050565b7f446561646c696e65206d75737420626520696e206675747572650000000000005f82015250565b5f612f58601a83611f63565b9150612f6382612f24565b602082019050919050565b5f6020820190508181035f830152612f8581612f4c565b9050919050565b7f5469746c652072657175697265640000000000000000000000000000000000005f82015250565b5f612fc0600e83611f63565b9150612fcb82612f8c565b602082019050919050565b5f6020820190508181035f830152612fed81612fb4565b9050919050565b7f4e487b71000000000000000000000000000000000000000000000000000000005f52601160045260245ffd5b5f61302b82611ead565b91507fffffffffffffffffffffffffffffffffffffffffffffffffffffffffffffffff820361305d5761305c612ff4565b5b600182019050919050565b61307182611f59565b67ffffffffffffffff81111561308a57613089612be1565b5b6130948254612569565b61309f828285612d0a565b5f60209050601f8311600181146130d0575f84156130be578287015190505b6130c88582612d78565b86555061312f565b601f1984166130de866128f8565b5f5b82811015613105578489015182556001820191506020850194506020810190506130e0565b86831015613122578489015161311e601f891682612d5c565b8355505b6001600288020188555050505b505050505050565b5f60608201905061314a5f830186611f4a565b6131576020830185611f4a565b6131646040830184611f0b565b949350505050565b7f57455448207472616e73666572206661696c65640000000000000000000000005f82015250565b5f6131a0601483611f63565b91506131ab8261316c565b602082019050919050565b5f6020820190508181035f8301526131cd81613194565b9050919050565b5f6060820190506131e75f830187611f0b565b6131f46020830186611f0b565b8181036040830152613207818486612e6e565b90509594505050505056fea26469706673582212206d79eb4dfcef78c3cce80f60e8f1baa087ddb02e13ebaab6cb5745abb228fdcc64736f6c634300081e0033","linkReferences":{}},"methodIdentifiers":{"WETH()":"ad5c4648","WORK_NFT()":"6db94320","approveWork(uint256)":"3d01e0fa","cancelJob(uint256)":"1dffa3dc","createJob(uint256,uint256,string,string)":"f053b6fe","getJob(uint256)":"bf22c457","getJobBasicInfo(uint256)":"235bf453","jobs(uint256)":"180aedf3","nextJobId()":"b0c2aa5e","owner()":"8da5cb5b","renounceOwnership()":"715018a6","submitWork(uint256,string)":"da8accf9","takeJob(uint256)":"9330d9bc","transferOwnership(address)":"f2fde38b"},"id":35}