{"abi":[{"type":"constructor","inputs":[{"name":"owner","type":"address","internalType":"address"}],"stateMutability":"nonpayable"},{"type":"function","name":"approve","inputs":[{"name":"to","type":"address","internalType":"address"},{"name":"tokenId","type":"uint256","internalType":"uint256"}],"outputs":[],"stateMutability":"nonpayable"},{"type":"function","name":"balanceOf","inputs":[{"name":"owner","type":"address","internalType":"address"}],"outputs":[{"name":"","type":"uint256","internalType":"uint256"}],"stateMutability":"view"},{"type":"function","name":"getApproved","inputs":[{"name":"tokenId","type":"uint256","internalType":"uint256"}],"outputs":[{"name":"","type":"address","internalType":"address"}],"stateMutability":"view"},{"type":"function","name":"isApprovedForAll","inputs":[{"name":"owner","type":"address","internalType":"address"},{"name":"operator","type":"address","internalType":"address"}],"outputs":[{"name":"","type":"bool","internalType":"bool"}],"stateMutability":"view"},{"type":"function","name":"mintWorkNft","inputs":[{"name":"to","type":"address","internalType":"address"},{"name":"jobId","type":"uint256","internalType":"uint256"},{"name":"reward","type":"uint256","internalType":"uint256"},{"name":"deadline","type":"uint256","internalType":"uint256"},{"name":"title","type":"string","internalType":"string"},{"name":"deliveryUrl","type":"string","internalType":"string"}],"outputs":[{"name":"tokenId","type":"uint256","internalType":"uint256"}],"stateMutability":"nonpayable"},{"type":"function","name":"name","inputs":[],"outputs":[{"name":"","type":"string","internalType":"string"}],"stateMutability":"view"},{"type":"function","name":"nextTokenId","inputs":[],"outputs":[{"name":"","type":"uint256","internalType":"uint256"}],"stateMutability":"view"},{"type":"function","name":"owner","inputs":[],"outputs":[{"name":"","type":"address","internalType":"address"}],"stateMutability":"view"},{"type":"function","name":"ownerOf","inputs":[{"name":"tokenId","type":"uint256","internalType":"uint256"}],"outputs":[{"name":"","type":"address","internalType":"address"}],"stateMu    tability":"view"},{"type":"function","name":"renounceOwnership","inputs":[],"outputs":[],"stateMutability":"nonpayable"},{"type":"function","name":"safeTransferFrom","inputs":[{"name":"from","type":"address","internalType":"address"},{"name":"to","type":"address","internalType":"address"},{"name":"tokenId","type":"uint256","internalType":"uint256"}],"outputs":[],"stateMutability":"nonpayable"},{"type":"function","name":"safeTransferFrom","inputs":[{"name":"from","type":"address","internalType":"address"},{"name":"to","type":"address","internalType":"address"},{"name":"tokenId","type":"uint256","internalType":"uint256"},{"name":"data","type":"bytes","internalType":"bytes"}],"outputs":[],"stateMutability":"nonpayable"},{"type":"function","name":"setApprovalForAll","inputs":[{"name":"operator","type":"address","internalType":"address"},{"name":"approved","type":"bool","internalType":"bool"}],"outputs":[],"stateMutability":"nonpayable"},{"type":"function","name":"supportsInterface","inputs":[{"name":"interfaceId","type":"bytes4","internalType":"bytes4"}],"outputs":[{"name":"","type":"bool","internalType":"bool"}],"stateMutability":"view"},{"type":"function","name":"symbol","inputs":[],"outputs":[{"name":"","type":"string","internalType":"string"}],"stateMutability":"view"},{"type":"function","name":"tokenURI","inputs":[{"name":"tokenId","type":"uint256","internalType":"uint256"}],"outputs":[{"name":"","type":"string","internalType":"string"}],"stateMutability":"view"},{"type":"function","name":"transferFrom","inputs":[{"name":"from","type":"address","internalType":"address"},{"name":"to","type":"address","internalType":"address"},{"name":"tokenId","type":"uint256","internalType":"uint256"}],"outputs":[],"stateMutability":"nonpayable"},{"type":"function","name":"transferOwnership","inputs":[{"name":"newOwner","type":"address","internalType":"address"}],"outputs":[],"stateMutability":"nonpayable"},{"type":"function","name":"workInfo","inputs":[{"name":"tokenId","type":"uint256","internalType":"uint256"}],"outputs":[{"name":"jobId","type":"uint256","internalType":"uint256"},{"name":"reward","type":"uint256","internalType":"uint256"},{"name":"deadline","type":"uint256","internalType":"uint256"},{"name":"title","type":"string","internalType":"string"},{"name":"deliveryUrl","type":"string","internalType":"string"}],"stateMutability":"view"},{"type":"event","name":"Approval","inputs":[{"name":"owner","type":"address","indexed":true,"internalType":"address"},{"name":"approved","type":"address","indexed":true,"internalType":"address"},{"name":"tokenId","type":"uint256","indexed":true,"internalType":"uint256"}],"anonymous":false},{"type":"event","name":"ApprovalForAll","inputs":[{"name":"owner","type":"address","indexed":true,"internalType":"address"},{"name":"operator","type":"address","indexed":true,"internalType":"address"},{"name":"approved","type":"bool","indexed":false,"internalType":"bool"}],"anonymous":false},{"type":"event","name":"OwnershipTransferred","inputs":[{"name":"previousOwner","type":"address","indexed":true,"internalType":"address"},{"name":"newOwner","type":"address","indexed":true,"internalType":"address"}],"anonymous":false},{"type":"event","name":"Transfer","inputs":[{"name":"from","type":"address","indexed":true,"internalType":"address"},{"name":"to","type":"address","indexed":true,"internalType":"address"},{"name":"tokenId","type":"uint256","indexed":true,"internalType":"uint256"}],"anonymous":false},{"type":"error","name":"ERC721IncorrectOwner","inputs":[{"name":"sender","type":"address","internalType":"address"},{"name":"tokenId","type":"uint256","internalType":"uint256"},{"name":"owner","type":"address","internalType":"address"}]},{"type":"error","name":"ERC721InsufficientApproval","inputs":[{"name":"operator","type":"address","internalType":"address"},{"name":"tokenId","type":"uint256","internalType":"uint256"}]},{"type":"error","name":"ERC721InvalidApprover","inputs":[{"name":"approver","type":"address","internalType":"address"}]},{"type":"error","name":"ERC721InvalidOperator","inputs":[{"name":"operator","type":"address","internalType":"address"}]},{"type":"error","name":"ERC721InvalidOwner","inputs":[{"name":"owner","type":"address","internalType":"address"}]},{"type":"error","name":"ERC721InvalidReceiver","inputs":[{"name":"receiver","type":"address","internalType":"address"}]},{"type":"error","name":"ERC721InvalidSender","inputs":[{"name":"sender","type":"address","internalType":"address"}]},{"type":"error","name":"ERC721NonexistentToken","inputs":[{"name":"tokenId","type":"uint256","internalType":"uint256"}]},{"type":"error","name":"OwnableInvalidOwner","inputs":[{"name":"owner","type":"address","internalType":"address"}]},{"type":"error","name":"OwnableUnauthorizedAccount","inputs":[{"name":"account","type":"address","internalType":"address"}]}],"bytecode":{"object":"0x60806040526001600755348015610014575f5ffd5b50604051612c8e380380612c8e8339818101604052810190610036919061026b565b806040518060400160405280600f81526020017f576f726b2043726564656e7469616c00000000000000000000000000000000008152506040518060400160405280600781526020017f574f524b4e465400000000000000000000000000000000000000000000000000815250815f90816100b191906104d3565b5080600190816100c191906104d3565b5050505f73ffffffffffffffffffffffffffffffffffffffff168173ffffffffffffffffffffffffffffffffffffffff1603610134575f6040517f1e4fbdf700000000000000000000000000000000000000000000000000000000815260040161012b91906105b1565b60405180910390fd5b6101438161014a60201b60201c565b50506105ca565b5f60065f9054906101000a900473ffffffffffffffffffffffffffffffffffffffff1690508160065f6101000a81548173ffffffffffffffffffffffffffffffffffffffff021916908373ffffffffffffffffffffffffffffffffffffffff1602179055508173ffffffffffffffffffffffffffffffffffffffff168173ffffffffffffffffffffffffffffffffffffffff167f8be0079c531659141344cd1fd0a4f28419497f9722a3daafe3b4186f6b6457e060405160405180910390a35050565b5f5ffd5b5f73ffffffffffffffffffffffffffffffffffffffff82169050919050565b5f61023a82610211565b9050919050565b61024a81610230565b8114610254575f5ffd5b50565b5f8151905061026581610241565b92915050565b5f602082840312156102805761027f61020d565b5b5f61028d84828501610257565b91505092915050565b5f81519050919050565b7f4e487b71000000000000000000000000000000000000000000000000000000005f52604160045260245ffd5b7f4e487b71000000000000000000000000000000000000000000000000000000005f52602260045260245ffd5b5f600282049050600182168061031157607f821691505b602082108103610324576103236102cd565b5b50919050565b5f819050815f5260205f209050919050565b5f6020601f8301049050919050565b5f82821b905092915050565b5f600883026103867fffffffffffffffffffffffffffffffffffffffffffffffffffffffffffffffff8261034b565b610390868361034b565b95508019841693508086168417925050509392505050565b5f819050919050565b5f819050919050565b5f6103d46103cf6103ca846103a8565b6103b1565b6103a8565b9050919050565b5f819050919050565b6103ed836103ba565b6104016103f9826103db565b848454610357565b825550505050565b5f5f905090565b610418610409565b6104238184846103e4565b505050565b5b818110156104465761043b5f82610410565b600181019050610429565b5050565b601f82111561048b5761045c8161032a565b6104658461033c565b81016020851015610474578190505b6104886104808561033c565b830182610428565b50505b505050565b5f82821c905092915050565b5f6104ab5f1984600802610490565b1980831691505092915050565b5f6104c3838361049c565b9150826002028217905092915050565b6104dc82610296565b67ffffffffffffffff8111156104f5576104f46102a0565b5b6104ff82546102fa565b61050a82828561044a565b5f60209050601f83116001811461053b575f8415610529578287015190505b61053385826104b8565b86555061059a565b601f1984166105498661032a565b5f5b828110156105705784890151825560018201915060208501945060208101905061054b565b8683101561058d5784890151610589601f89168261049c565b8355505b6001600288020188555050505b505050505050565b6105ab81610230565b82525050565b5f6020820190506105c45f8301846105a2565b92915050565b6126b7806105d75f395ff3fe608060405234801561000f575f5ffd5b506004361061011f575f3560e01c806375794a3c116100ab578063b88d4fde1161006f578063b88d4fde14610309578063c87b56dd14610325578063e985e9c514610355578063ef412a9a14610385578063f2fde38b146103b55761011f565b806375794a3c1461025f5780638da5cb5b1461027d57806395d89b411461029b57806396c6f803146102b9578063a22cb465146102ed5761011f565b806323b872dd116100f257806323b872dd146101bd57806342842e0e146101d95780636352211e146101f557806370a0823114610225578063715018a6146102555761011f565b806301ffc9a71461012357806306fdde0314610153578063081812fc14610171578063095ea7b3146101a1575b5f5ffd5b61013d60048036038101906101389190611ac1565b6103d1565b60405161014a9190611b06565b60405180910390f35b61015b6104b2565b6040516101689190611b8f565b60405180910390f35b61018b60048036038101906101869190611be2565b610541565b6040516101989190611c4c565b60405180910390f35b6101bb60048036038101906101b69190611c8f565b61055c565b005b6101d760048036038101906101d29190611ccd565b610572565b005b6101f360048036038101906101ee9190611ccd565b610671565b005b61020f600480360381019061020a9190611be2565b610690565b60405161021c9190611c4c565b60405180910390f35b61023f600480360381019061023a9190611d1d565b6106a1565b60405161024c9190611d57565b60405180910390f35b61025d610757565b005b61026761076a565b6040516102749190611d57565b60405180910390f35b610285610770565b6040516102929190611c4c565b60405180910390f35b6102a3610798565b6040516102b09190611b8f565b60405180910390f35b6102d360048036038101906102ce9190611be2565b610828565b6040516102e4959493929190611d70565b60405180910390f35b61030760048036038101906103029190611df9565b610966565b005b610323600480360381019061031e9190611f63565b61097c565b005b61033f600480360381019061033a9190611be2565b6109a1565b60405161034c9190611b8f565b60405180910390f35b61036f600480360381019061036a9190611fe3565b610a07565b60405161037c9190611b06565b60405180910390f35b61039f600480360381019061039a91906120bf565b610a95565b6040516103ac9190611d57565b60405180910390f35b6103cf60048036038101906103ca9190611d1d565b610b4d565b005b5f7f80ac58cd000000000000000000000000000000000000000000000000000000007bffffffffffffffffffffffffffffffffffffffffffffffffffffffff1916827bffffffffffffffffffffffffffffffffffffffffffffffffffffffff1916148061049b57507f5b5e139f000000000000000000000000000000000000000000000000000000007bffffffffffffffffffffffffffffffffffffffffffffffffffffffff1916827bffffffffffffffffffffffffffffffffffffffffffffffffffffffff1916145b806104ab57506104aa82610bd1565b5b9050919050565b60605f80546104c0906121ad565b80601f01602080910402602001604051908101604052809291908181526020018280546104ec906121ad565b80156105375780601f1061050e57610100808354040283529160200191610537565b820191905f5260205f20905b81548152906001019060200180831161051a57829003601f168201915b5050505050905090565b5f61054b82610c3a565b5061055582610cc0565b9050919050565b61056e8282610569610cf9565b610d00565b5050565b5f73ffffffffffffffffffffffffffffffffffffffff168273ffffffffffffffffffffffffffffffffffffffff16036105e2575f6040517f64a0ae920000000000000000000000000000000000000000000000000000000081526004016105d99190611c4c565b60405180910390fd5b5f6105f583836105f0610cf9565b610d12565b90508373ffffffffffffffffffffffffffffffffffffffff168173ffffffffffffffffffffffffffffffffffffffff161461066b578382826040517f64283d7b000000000000000000000000000000000000000000000000000000008152600401610662939291906121dd565b60405180910390fd5b50505050565b61068b83838360405180602001604052805f81525061097c565b505050565b5f61069a82610c3a565b9050919050565b5f5f73ffffffffffffffffffffffffffffffffffffffff168273ffffffffffffffffffffffffffffffffffffffff1603610712575f6040517f89c62b640000000000000000000000000000000000000000000000000000000081526004016107099190611c4c565b60405180910390fd5b60035f8373ffffffffffffffffffffffffffffffffffffffff1673ffffffffffffffffffffffffffffffffffffffff1681526020019081526020015f20549050919050565b61075f610f1d565b6107685f610fa4565b565b60075481565b5f60065f9054906101000a900473ffffffffffffffffffffffffffffffffffffffff16905090565b6060600180546107a7906121ad565b80601f01602080910402602001604051908101604052809291908181526020018280546107d3906121ad565b801561081e5780601f106107f55761010080835404028352916020019161081e565b820191905f5260205f20905b81548152906001019060200180831161080157829003601f168201915b5050505050905090565b6008602052805f5260405f205f91509050805f015490806001015490806002015490806003018054610859906121ad565b80601f0160208091040260200160405190810160405280929190818152602001828054610885906121ad565b80156108d05780601f106108a7576101008083540402835291602001916108d0565b820191905f5260205f20905b8154815290600101906020018083116108b357829003601f168201915b5050505050908060040180546108e5906121ad565b80601f0160208091040260200160405190810160405280929190818152602001828054610911906121ad565b801561095c5780601f106109335761010080835404028352916020019161095c565b820191905f5260205f20905b81548152906001019060200180831161093f57829003601f168201915b5050505050905085565b610978610971610cf9565b8383611067565b5050565b610987848484610572565b61099b610992610cf9565b858585856111d0565b50505050565b60606109ac82610c3a565b505f6109b661137c565b90505f8151116109d45760405180602001604052805f8152506109ff565b806109de84611392565b6040516020016109ef92919061224c565b6040516020818303038152906040525b915050919050565b5f60055f8473ffffffffffffffffffffffffffffffffffffffff1673ffffffffffffffffffffffffffffffffffffffff1681526020019081526020015f205f8373ffffffffffffffffffffffffffffffffffffffff1673ffffffffffffffffffffffffffffffffffffffff1681526020019081526020015f205f9054906101000a900460ff16905092915050565b5f610a9e610f1d565b60075f815480929190610ab09061229c565b919050559050610ac0878261145c565b6040518060a001604052808781526020018681526020018581526020018481526020018381525060085f8381526020019081526020015f205f820151815f015560208201518160010155604082015181600201556060820151816003019081610b299190612483565b506080820151816004019081610b3f9190612483565b509050509695505050505050565b610b55610f1d565b5f73ffffffffffffffffffffffffffffffffffffffff168173ffffffffffffffffffffffffffffffffffffffff1603610bc5575f6040517f1e4fbdf7000000000000000000000000000000000000000000000000000000008152600401610bbc9190611c4c565b60405180910390fd5b610bce81610fa4565b50565b5f7f01ffc9a7000000000000000000000000000000000000000000000000000000007bffffffffffffffffffffffffffffffffffffffffffffffffffffffff1916827bffffffffffffffffffffffffffffffffffffffffffffffffffffffff1916149050919050565b5f5f610c4583611479565b90505f73ffffffffffffffffffffffffffffffffffffffff168173ffffffffffffffffffffffffffffffffffffffff1603610cb757826040517f7e273289000000000000000000000000000000000000000000000000000000008152600401610cae9190611d57565b60405180910390fd5b80915050919050565b5f60045f8381526020019081526020015f205f9054906101000a900473ffffffffffffffffffffffffffffffffffffffff169050919050565b5f33905090565b610d0d83838360016114b2565b505050565b5f5f610d1d84611479565b90505f73ffffffffffffffffffffffffffffffffffffffff168373ffffffffffffffffffffffffffffffffffffffff1614610d5e57610d5d818486611671565b5b5f73ffffffffffffffffffffffffffffffffffffffff168173ffffffffffffffffffffffffffffffffffffffff1614610de957610d9d5f855f5f6114b2565b600160035f8373ffffffffffffffffffffffffffffffffffffffff1673ffffffffffffffffffffffffffffffffffffffff1681526020019081526020015f205f82825403925050819055505b5f73ffffffffffffffffffffffffffffffffffffffff168573ffffffffffffffffffffffffffffffffffffffff1614610e6857600160035f8773ffffffffffffffffffffffffffffffffffffffff1673ffffffffffffffffffffffffffffffffffffffff1681526020019081526020015f205f82825401925050819055505b8460025f8681526020019081526020015f205f6101000a81548173ffffffffffffffffffffffffffffffffffffffff021916908373ffffffffffffffffffffffffffffffffffffffff160217905550838573ffffffffffffffffffffffffffffffffffffffff168273ffffffffffffffffffffffffffffffffffffffff167fddf252ad1be2c89b69c2b068fc378daa952ba7f163c4a11628f55a4df523b3ef60405160405180910390a4809150509392505050565b610f25610cf9565b73ffffffffffffffffffffffffffffffffffffffff16610f43610770565b73ffffffffffffffffffffffffffffffffffffffff1614610fa257610f66610cf9565b6040517f118cdaa7000000000000000000000000000000000000000000000000000000008152600401610f999190611c4c565b60405180910390fd5b565b5f60065f9054906101000a900473ffffffffffffffffffffffffffffffffffffffff1690508160065f6101000a81548173ffffffffffffffffffffffffffffffffffffffff021916908373ffffffffffffffffffffffffffffffffffffffff1602179055508173ffffffffffffffffffffffffffffffffffffffff168173ffffffffffffffffffffffffffffffffffffffff167f8be0079c531659141344cd1fd0a4f28419497f9722a3daafe3b4186f6b6457e060405160405180910390a35050565b5f73ffffffffffffffffffffffffffffffffffffffff168273ffffffffffffffffffffffffffffffffffffffff16036110d757816040517f5b08ba180000000000000000000000000000000000000000000000000000000081526004016110ce9190611c4c565b60405180910390fd5b8060055f8573ffffffffffffffffffffffffffffffffffffffff1673ffffffffffffffffffffffffffffffffffffffff1681526020019081526020015f205f8473ffffffffffffffffffffffffffffffffffffffff1673ffffffffffffffffffffffffffffffffffffffff1681526020019081526020015f205f6101000a81548160ff0219169083151502179055508173ffffffffffffffffffffffffffffffffffffffff168373ffffffffffffffffffffffffffffffffffffffff167f17307eab39ab6107e8899845ad3d59bd9653f200f220920489ca2b5937696c31836040516111c39190611b06565b60405180910390a3505050565b5f8373ffffffffffffffffffffffffffffffffffffffff163b1115611375578273ffffffffffffffffffffffffffffffffffffffff1663150b7a02868685856040518563ffffffff1660e01b815260040161122e94939291906125a4565b6020604051808303815f875af192505050801561126957506040513d601f19601f820116820180604052508101906112669190612602565b60015b6112ea573d805f8114611297576040519150601f19603f3d011682016040523d82523d5f602084013e61129c565b606091505b505f8151036112e257836040517f64a0ae920000000000000000000000000000000000000000000000000000000081526004016112d99190611c4c565b60405180910390fd5b805160208201fd5b63150b7a0260e01b7bffffffffffffffffffffffffffffffffffffffffffffffffffffffff1916817bffffffffffffffffffffffffffffffffffffffffffffffffffffffff19161461137357836040517f64a0ae9200000000000000000000000000000000000000000000000000000000815260040161136a9190611c4c565b60405180910390fd5b505b5050505050565b606060405180602001604052805f815250905090565b60605f60016113a084611734565b0190505f8167ffffffffffffffff8111156113be576113bd611e3f565b5b6040519080825280601f01601f1916602001820160405280156113f05781602001600182028036833780820191505090505b5090505f82602083010190505b600115611451578080600190039150507f3031323334353637383961626364656600000000000000000000000000000000600a86061a8153600a85816114465761144561262d565b5b0494505f85036113fd575b819350505050919050565b611475828260405180602001604052805f815250611885565b5050565b5f60025f8381526020019081526020015f205f9054906101000a900473ffffffffffffffffffffffffffffffffffffffff169050919050565b80806114ea57505f73ffffffffffffffffffffffffffffffffffffffff168273ffffffffffffffffffffffffffffffffffffffff1614155b1561161c575f6114f984610c3a565b90505f73ffffffffffffffffffffffffffffffffffffffff168373ffffffffffffffffffffffffffffffffffffffff161415801561156357508273ffffffffffffffffffffffffffffffffffffffff168173ffffffffffffffffffffffffffffffffffffffff1614155b801561157657506115748184610a07565b155b156115b857826040517fa9fbf51f0000000000000000000000000000000000000000000000000000000081526004016115af9190611c4c565b60405180910390fd5b811561161a57838573ffffffffffffffffffffffffffffffffffffffff168273ffffffffffffffffffffffffffffffffffffffff167f8c5be1e5ebec7d5bd14f71427d1e84f3dd0314c0f7b2291e5b200ac8c7c3b92560405160405180910390a45b505b8360045f8581526020019081526020015f205f6101000a81548173ffffffffffffffffffffffffffffffffffffffff021916908373ffffffffffffffffffffffffffffffffffffffff16021790555050505050565b61167c8383836118a8565b61172f575f73ffffffffffffffffffffffffffffffffffffffff168373ffffffffffffffffffffffffffffffffffffffff16036116f057806040517f7e2732890000000000000000000000000000000000000000000000000000000081526004016116e79190611d57565b60405180910390fd5b81816040517f177e802f00000000000000000000000000000000000000000000000000000000815260040161172692919061265a565b60405180910390fd5b505050565b5f5f5f90507a184f03e93ff9f4daa797ed6e38ed64bf6a1f0100000000000000008310611790577a184f03e93ff9f4daa797ed6e38ed64bf6a1f01000000000000000083816117865761178561262d565b5b0492506040810190505b6d04ee2d6d415b85acef810000000083106117cd576d04ee2d6d415b85acef810000000083816117c3576117c261262d565b5b0492506020810190505b662386f26fc1000083106117fc57662386f26fc1000083816117f2576117f161262d565b5b0492506010810190505b6305f5e1008310611825576305f5e100838161181b5761181a61262d565b5b0492506008810190505b612710831061184a5761271083816118405761183f61262d565b5b0492506004810190505b6064831061186d57606483816118635761186261262d565b5b0492506002810190505b600a831061187c576001810190505b80915050919050565b61188f8383611968565b6118a361189a610cf9565b5f8585856111d0565b505050565b5f5f73ffffffffffffffffffffffffffffffffffffffff168373ffffffffffffffffffffffffffffffffffffffff161415801561195f57508273ffffffffffffffffffffffffffffffffffffffff168473ffffffffffffffffffffffffffffffffffffffff161480611920575061191f8484610a07565b5b8061195e57508273ffffffffffffffffffffffffffffffffffffffff1661194683610cc0565b73ffffffffffffffffffffffffffffffffffffffff16145b5b90509392505050565b5f73ffffffffffffffffffffffffffffffffffffffff168273ffffffffffffffffffffffffffffffffffffffff16036119d8575f6040517f64a0ae920000000000000000000000000000000000000000000000000000000081526004016119cf9190611c4c565b60405180910390fd5b5f6119e483835f610d12565b90505f73ffffffffffffffffffffffffffffffffffffffff168173ffffffffffffffffffffffffffffffffffffffff1614611a56575f6040517f73c6ac6e000000000000000000000000000000000000000000000000000000008152600401611a4d9190611c4c565b60405180910390fd5b505050565b5f604051905090565b5f5ffd5b5f5ffd5b5f7fffffffff0000000000000000000000000000000000000000000000000000000082169050919050565b611aa081611a6c565b8114611aaa575f5ffd5b50565b5f81359050611abb81611a97565b92915050565b5f60208284031215611ad657611ad5611a64565b5b5f611ae384828501611aad565b91505092915050565b5f8115159050919050565b611b0081611aec565b82525050565b5f602082019050611b195f830184611af7565b92915050565b5f81519050919050565b5f82825260208201905092915050565b8281835e5f83830152505050565b5f601f19601f8301169050919050565b5f611b6182611b1f565b611b6b8185611b29565b9350611b7b818560208601611b39565b611b8481611b47565b840191505092915050565b5f6020820190508181035f830152611ba78184611b57565b905092915050565b5f819050919050565b611bc181611baf565b8114611bcb575f5ffd5b50565b5f81359050611bdc81611bb8565b92915050565b5f60208284031215611bf757611bf6611a64565b5b5f611c0484828501611bce565b91505092915050565b5f73ffffffffffffffffffffffffffffffffffffffff82169050919050565b5f611c3682611c0d565b9050919050565b611c4681611c2c565b82525050565b5f602082019050611c5f5f830184611c3d565b92915050565b611c6e81611c2c565b8114611c78575f5ffd5b50565b5f81359050611c8981611c65565b92915050565b5f5f60408385031215611ca557611ca4611a64565b5b5f611cb285828601611c7b565b9250506020611cc385828601611bce565b9150509250929050565b5f5f5f60608486031215611ce457611ce3611a64565b5b5f611cf186828701611c7b565b9350506020611d0286828701611c7b565b9250506040611d1386828701611bce565b9150509250925092565b5f60208284031215611d3257611d31611a64565b5b5f611d3f84828501611c7b565b91505092915050565b611d5181611baf565b82525050565b5f602082019050611d6a5f830184611d48565b92915050565b5f60a082019050611d835f830188611d48565b611d906020830187611d48565b611d9d6040830186611d48565b8181036060830152611daf8185611b57565b90508181036080830152611dc38184611b57565b90509695505050505050565b611dd881611aec565b8114611de2575f5ffd5b50565b5f81359050611df381611dcf565b92915050565b5f5f60408385031215611e0f57611e0e611a64565b5b5f611e1c85828601611c7b565b9250506020611e2d85828601611de5565b9150509250929050565b5f5ffd5b5f5ffd5b7f4e487b71000000000000000000000000000000000000000000000000000000005f52604160045260245ffd5b611e7582611b47565b810181811067ffffffffffffffff82111715611e9457611e93611e3f565b5b80604052505050565b5f611ea6611a5b565b9050611eb28282611e6c565b919050565b5f67ffffffffffffffff821115611ed157611ed0611e3f565b5b611eda82611b47565b9050602081019050919050565b828183375f83830152505050565b5f611f07611f0284611eb7565b611e9d565b905082815260208101848484011115611f2357611f22611e3b565b5b611f2e848285611ee7565b509392505050565b5f82601f830112611f4a57611f49611e37565b5b8135611f5a848260208601611ef5565b91505092915050565b5f5f5f5f60808587031215611f7b57611f7a611a64565b5b5f611f8887828801611c7b565b9450506020611f9987828801611c7b565b9350506040611faa87828801611bce565b925050606085013567ffffffffffffffff811115611fcb57611fca611a68565b5b611fd787828801611f36565b91505092959194509250565b5f5f60408385031215611ff957611ff8611a64565b5b5f61200685828601611c7b565b925050602061201785828601611c7b565b9150509250929050565b5f67ffffffffffffffff82111561203b5761203a611e3f565b5b61204482611b47565b9050602081019050919050565b5f61206361205e84612021565b611e9d565b90508281526020810184848401111561207f5761207e611e3b565b5b61208a848285611ee7565b509392505050565b5f82601f8301126120a6576120a5611e37565b5b81356120b6848260208601612051565b91505092915050565b5f5f5f5f5f5f60c087890312156120d9576120d8611a64565b5b5f6120e689828a01611c7b565b96505060206120f789828a01611bce565b955050604061210889828a01611bce565b945050606061211989828a01611bce565b935050608087013567ffffffffffffffff81111561213a57612139611a68565b5b61214689828a01612092565b92505060a087013567ffffffffffffffff81111561216757612166611a68565b5b61217389828a01612092565b9150509295509295509295565b7f4e487b71000000000000000000000000000000000000000000000000000000005f52602260045260245ffd5b5f60028204905060018216806121c457607f821691505b6020821081036121d7576121d6612180565b5b50919050565b5f6060820190506121f05f830186611c3d565b6121fd6020830185611d48565b61220a6040830184611c3d565b949350505050565b5f81905092915050565b5f61222682611b1f565b6122308185612212565b9350612240818560208601611b39565b80840191505092915050565b5f612257828561221c565b9150612263828461221c565b91508190509392505050565b7f4e487b71000000000000000000000000000000000000000000000000000000005f52601160045260245ffd5b5f6122a682611baf565b91507fffffffffffffffffffffffffffffffffffffffffffffffffffffffffffffffff82036122d8576122d761226f565b5b600182019050919050565b5f819050815f5260205f209050919050565b5f6020601f8301049050919050565b5f82821b905092915050565b5f6008830261233f7fffffffffffffffffffffffffffffffffffffffffffffffffffffffffffffffff82612304565b6123498683612304565b95508019841693508086168417925050509392505050565b5f819050919050565b5f61238461237f61237a84611baf565b612361565b611baf565b9050919050565b5f819050919050565b61239d8361236a565b6123b16123a98261238b565b848454612310565b825550505050565b5f5f905090565b6123c86123b9565b6123d3818484612394565b505050565b5b818110156123f6576123eb5f826123c0565b6001810190506123d9565b5050565b601f82111561243b5761240c816122e3565b612415846122f5565b81016020851015612424578190505b612438612430856122f5565b8301826123d8565b50505b505050565b5f82821c905092915050565b5f61245b5f1984600802612440565b1980831691505092915050565b5f612473838361244c565b9150826002028217905092915050565b61248c82611b1f565b67ffffffffffffffff8111156124a5576124a4611e3f565b5b6124af82546121ad565b6124ba8282856123fa565b5f60209050601f8311600181146124eb575f84156124d9578287015190505b6124e38582612468565b86555061254a565b601f1984166124f9866122e3565b5f5b82811015612520578489015182556001820191506020850194506020810190506124fb565b8683101561253d5784890151612539601f89168261244c565b8355505b6001600288020188555050505b505050505050565b5f81519050919050565b5f82825260208201905092915050565b5f61257682612552565b612580818561255c565b9350612590818560208601611b39565b61259981611b47565b840191505092915050565b5f6080820190506125b75f830187611c3d565b6125c46020830186611c3d565b6125d16040830185611d48565b81810360608301526125e3818461256c565b905095945050505050565b5f815190506125fc81611a97565b92915050565b5f6020828403121561261757612616611a64565b5b5f612624848285016125ee565b91505092915050565b7f4e487b71000000000000000000000000000000000000000000000000000000005f52601260045260245ffd5b5f60408201905061266d5f830185611c3d565b61267a6020830184611d48565b939250505056fea2646970667358221220409b84d732615bb4d713fd9bbe32b70435b926c56534681ec16f5068202356ba64736f6c634300081e0033","linkReferences":{}},"methodIdentifiers":{"approve(address,uint256)":"095ea7b3","balanceOf(address)":"70a08231","getApproved(uint256)":"081812fc","isApprovedForAll(address,address)":"e985e9c5","mintWorkNft(address,uint256,uint256,uint256,string,string)":"ef412a9a","name()":"06fdde03","nextTokenId()":"75794a3c","owner()":"8da5cb5b","ownerOf(uint256)":"6352211e","renounceOwnership()":"715018a6","safeTransferFrom(address,address,uint256)":"42842e0e","safeTransferFrom(address,address,uint256,bytes)":"b88d4fde","setApprovalForAll(address,bool)":"a22cb465","supportsInterface(bytes4)":"01ffc9a7","symbol()":"95d89b41","tokenURI(uint256)":"c87b56dd","transferFrom(address,address,uint256)":"23b872dd","transferOwnership(address)":"f2fde38b","workInfo(uint256)":"96c6f803"},"id":36}